{
  "_format": "hh-sol-artifact-1",
  "contractName": "MockDEX",
  "sourceName": "contracts/mocks/MockDEX.sol",
  "abi": [
    {
      "anonymous": false,
      "inputs": [
        {
          "indexed": false,
          "internalType": "address",
          "name": "token0",
          "type": "address"
        },
        {
          "indexed": false,
          "internalType": "address",
          "name": "token1",
          "type": "address"
        },
        {
          "indexed": false,
          "internalType": "uint256",
          "name": "amount0",
          "type": "uint256"
        },
        {
          "indexed": false,
          "internalType": "uint256",
          "name": "amount1",
          "type": "uint256"
        }
      ],
      "name": "LiquidityAdded",
      "type": "event"
    },
    {
      "anonymous": false,
      "inputs": [
        {
          "indexed": false,
          "internalType": "address",
          "name": "tokenIn",
          "type": "address"
        },
        {
          "indexed": false,
          "internalType": "address",
          "name": "tokenOut",
          "type": "address"
        },
        {
          "indexed": false,
          "internalType": "uint256",
          "name": "amountIn",
          "type": "uint256"
        },
        {
          "indexed": false,
          "internalType": "uint256",
          "name": "amountOut",
          "type": "uint256"
        }
      ],
      "name": "Swap",
      "type": "event"
    },
    {
      "inputs": [
        {
          "internalType": "address",
          "name": "token0",
          "type": "address"
        },
        {
          "internalType": "address",
          "name": "token1",
          "type": "address"
        },
        {
          "internalType": "uint256",
          "name": "amount0",
          "type": "uint256"
        },
        {
          "internalType": "uint256",
          "name": "amount1",
          "type": "uint256"
        }
      ],
      "name": "addLiquidity",
      "outputs": [],
      "stateMutability": "nonpayable",
      "type": "function"
    },
    {
      "inputs": [
        {
          "internalType": "uint256",
          "name": "amountIn",
          "type": "uint256"
        },
        {
          "internalType": "uint256",
          "name": "reserveIn",
          "type": "uint256"
        },
        {
          "internalType": "uint256",
          "name": "reserveOut",
          "type": "uint256"
        }
      ],
      "name": "calculateAmountOut",
      "outputs": [
        {
          "internalType": "uint256",
          "name": "",
          "type": "uint256"
        }
      ],
      "stateMutability": "pure",
      "type": "function"
    },
    {
      "inputs": [
        {
          "internalType": "address",
          "name": "token0",
          "type": "address"
        },
        {
          "internalType": "address",
          "name": "token1",
          "type": "address"
        }
      ],
      "name": "getReserves",
      "outputs": [
        {
          "internalType": "uint256",
          "name": "",
          "type": "uint256"
        },
        {
          "internalType": "uint256",
          "name": "",
          "type": "uint256"
        }
      ],
      "stateMutability": "view",
      "type": "function"
    },
    {
      "inputs": [
        {
          "internalType": "address",
          "name": "",
          "type": "address"
        },
        {
          "internalType": "address",
          "name": "",
          "type": "address"
        }
      ],
      "name": "reserves",
      "outputs": [
        {
          "internalType": "uint256",
          "name": "",
          "type": "uint256"
        }
      ],
      "stateMutability": "view",
      "type": "function"
    },
    {
      "inputs": [
        {
          "internalType": "uint256",
          "name": "amountIn",
          "type": "uint256"
        },
        {
          "internalType": "uint256",
          "name": "amountOutMin",
          "type": "uint256"
        },
        {
          "internalType": "address[]",
          "name": "path",
          "type": "address[]"
        },
        {
          "internalType": "address",
          "name": "to",
          "type": "address"
        },
        {
          "internalType": "uint256",
          "name": "deadline",
          "type": "uint256"
        }
      ],
      "name": "swapExactTokensForTokens",
      "outputs": [
        {
          "internalType": "uint256[]",
          "name": "amounts",
          "type": "uint256[]"
        }
      ],
      "stateMutability": "nonpayable",
      "type": "function"
    }
  ],
  "bytecode": "0x608060405234801561001057600080fd5b506001600055610f77806100256000396000f3fe608060405234801561001057600080fd5b50600436106100575760003560e01c806338ed17391461005c57806386935aa814610085578063cf6c62ea146100a6578063d52bb6f4146100bb578063ea4afc541461011c575b600080fd5b61006f61006a366004610cb6565b610147565b60405161007c9190610d58565b60405180910390f35b610098610093366004610d9c565b6108db565b60405190815260200161007c565b6100b96100b4366004610dc8565b6109c4565b005b6101076100c9366004610e0a565b6001600160a01b0391821660008181526001602081815260408084209590961683529384528482205490845284822092825291909252919020549091565b6040805192835260208301919091520161007c565b61009861012a366004610e0a565b600160209081526000928352604080842090915290825290205481565b6060610151610c41565b428210156101905760405162461bcd60e51b8152602060048201526007602482015266115e1c1a5c995960ca1b60448201526064015b60405180910390fd5b60028410156101d05760405162461bcd60e51b815260206004820152600c60248201526b092dcecc2d8d2c840e0c2e8d60a31b6044820152606401610187565b8367ffffffffffffffff8111156101e9576101e9610e3d565b604051908082528060200260200182016040528015610212578160200160208202803683370190505b509050868160008151811061022957610229610e53565b60200260200101818152505060005b610243600186610e7f565b8110156103e7576103ae82828151811061025f5761025f610e53565b60200260200101516001600089898681811061027d5761027d610e53565b90506020020160208101906102929190610e98565b6001600160a01b03166001600160a01b03168152602001908152602001600020600089898660016102c39190610eba565b8181106102d2576102d2610e53565b90506020020160208101906102e79190610e98565b6001600160a01b03166001600160a01b0316815260200190815260200160002054600160008a8a87600161031b9190610eba565b81811061032a5761032a610e53565b905060200201602081019061033f9190610e98565b6001600160a01b03166001600160a01b0316815260200190815260200160002060008a8a8781811061037357610373610e53565b90506020020160208101906103889190610e98565b6001600160a01b03166001600160a01b03168152602001908152602001600020546108db565b826103ba836001610eba565b815181106103ca576103ca610e53565b6020908102919091010152806103df81610ecd565b915050610238565b508581600183516103f89190610e7f565b8151811061040857610408610e53565b602002602001015110156104545760405162461bcd60e51b8152602060048201526013602482015272125b9cdd59999a58da595b9d081bdd5d1c1d5d606a1b6044820152606401610187565b8484600081811061046757610467610e53565b905060200201602081019061047c9190610e98565b6001600160a01b03166323b872dd33308460008151811061049f5761049f610e53565b60209081029190910101516040516001600160e01b031960e086901b1681526001600160a01b03938416600482015292909116602483015260448201526064016020604051808303816000875af11580156104fe573d6000803e3d6000fd5b505050506040513d601f19601f820116820180604052508101906105229190610ee6565b508484610530600182610e7f565b81811061053f5761053f610e53565b90506020020160208101906105549190610e98565b6001600160a01b031663a9059cbb8483600185516105729190610e7f565b8151811061058257610582610e53565b60200260200101516040518363ffffffff1660e01b81526004016105bb9291906001600160a01b03929092168252602082015260400190565b6020604051808303816000875af11580156105da573d6000803e3d6000fd5b505050506040513d601f19601f820116820180604052508101906105fe9190610ee6565b5060005b61060d600186610e7f565b8110156107ce5781818151811061062657610626610e53565b60200260200101516001600088888581811061064457610644610e53565b90506020020160208101906106599190610e98565b6001600160a01b03166001600160a01b031681526020019081526020016000206000888885600161068a9190610eba565b81811061069957610699610e53565b90506020020160208101906106ae9190610e98565b6001600160a01b03166001600160a01b0316815260200190815260200160002060008282546106dd9190610eba565b909155508290506106ef826001610eba565b815181106106ff576106ff610e53565b602002602001015160016000888885600161071a9190610eba565b81811061072957610729610e53565b905060200201602081019061073e9190610e98565b6001600160a01b03166001600160a01b03168152602001908152602001600020600088888581811061077257610772610e53565b90506020020160208101906107879190610e98565b6001600160a01b03166001600160a01b0316815260200190815260200160002060008282546107b69190610e7f565b909155508190506107c681610ecd565b915050610602565b507ffa2dda1cc1b86e41239702756b13effbc1a092b5c57e3ad320fbe4f3b13fe2358585600081811061080357610803610e53565b90506020020160208101906108189190610e98565b8686610825600182610e7f565b81811061083457610834610e53565b90506020020160208101906108499190610e98565b8360008151811061085c5761085c610e53565b602002602001015184600186516108739190610e7f565b8151811061088357610883610e53565b60200260200101516040516108bf94939291906001600160a01b0394851681529290931660208301526040820152606081019190915260800190565b60405180910390a16108d16001600055565b9695505050505050565b60008084116109215760405162461bcd60e51b8152602060048201526012602482015271125b9cdd59999a58da595b9d081a5b9c1d5d60721b6044820152606401610187565b6000831180156109315750600082115b6109765760405162461bcd60e51b8152602060048201526016602482015275496e73756666696369656e74206c697175696469747960501b6044820152606401610187565b6000610984856103e5610f08565b905060006109928483610f08565b90506000826109a3876103e8610f08565b6109ad9190610eba565b90506109b98183610f1f565b979650505050505050565b6109cc610c41565b6001600160a01b038416158015906109ec57506001600160a01b03831615155b610a295760405162461bcd60e51b815260206004820152600e60248201526d496e76616c696420746f6b656e7360901b6044820152606401610187565b600082118015610a395750600081115b610a775760405162461bcd60e51b815260206004820152600f60248201526e496e76616c696420616d6f756e747360881b6044820152606401610187565b6040516323b872dd60e01b8152336004820152306024820152604481018390526001600160a01b038516906323b872dd906064016020604051808303816000875af1158015610aca573d6000803e3d6000fd5b505050506040513d601f19601f82011682018060405250810190610aee9190610ee6565b506040516323b872dd60e01b8152336004820152306024820152604481018290526001600160a01b038416906323b872dd906064016020604051808303816000875af1158015610b42573d6000803e3d6000fd5b505050506040513d601f19601f82011682018060405250810190610b669190610ee6565b506001600160a01b03808516600090815260016020908152604080832093871683529290529081208054849290610b9e908490610eba565b90915550506001600160a01b03808416600090815260016020908152604080832093881683529290529081208054839290610bda908490610eba565b9091555050604080516001600160a01b03808716825285166020820152908101839052606081018290527f36f3b2e1a21c19137dd82ec243b0708a1d26b3d1fa1dc49c44c4c366a58781389060800160405180910390a1610c3b6001600055565b50505050565b600260005403610c935760405162461bcd60e51b815260206004820152601f60248201527f5265656e7472616e637947756172643a207265656e7472616e742063616c6c006044820152606401610187565b6002600055565b80356001600160a01b0381168114610cb157600080fd5b919050565b60008060008060008060a08789031215610ccf57600080fd5b8635955060208701359450604087013567ffffffffffffffff80821115610cf557600080fd5b818901915089601f830112610d0957600080fd5b813581811115610d1857600080fd5b8a60208260051b8501011115610d2d57600080fd5b602083019650809550505050610d4560608801610c9a565b9150608087013590509295509295509295565b6020808252825182820181905260009190848201906040850190845b81811015610d9057835183529284019291840191600101610d74565b50909695505050505050565b600080600060608486031215610db157600080fd5b505081359360208301359350604090920135919050565b60008060008060808587031215610dde57600080fd5b610de785610c9a565b9350610df560208601610c9a565b93969395505050506040820135916060013590565b60008060408385031215610e1d57600080fd5b610e2683610c9a565b9150610e3460208401610c9a565b90509250929050565b634e487b7160e01b600052604160045260246000fd5b634e487b7160e01b600052603260045260246000fd5b634e487b7160e01b600052601160045260246000fd5b81810381811115610e9257610e92610e69565b92915050565b600060208284031215610eaa57600080fd5b610eb382610c9a565b9392505050565b80820180821115610e9257610e92610e69565b600060018201610edf57610edf610e69565b5060010190565b600060208284031215610ef857600080fd5b81518015158114610eb357600080fd5b8082028115828204841417610e9257610e92610e69565b600082610f3c57634e487b7160e01b600052601260045260246000fd5b50049056fea264697066735822122062ea636d48b078acda0968e6c81a28cd5e85960d79238b0aa0f730b188f2ee6864736f6c63430008130033",
  "linkReferences": {},
  "deployedLinkReferences": {}
}