{
  "_format": "hh-sol-artifact-1",
  "contractName": "FlashLoanHandler",
  "sourceName": "contracts/core/FlashLoanHandler.sol",
  "abi": [
    {
      "inputs": [],
      "stateMutability": "nonpayable",
      "type": "constructor"
    },
    {
      "anonymous": false,
      "inputs": [
        {
          "indexed": true,
          "internalType": "address",
          "name": "previousOwner",
          "type": "address"
        },
        {
          "indexed": true,
          "internalType": "address",
          "name": "newOwner",
          "type": "address"
        }
      ],
      "name": "OwnershipTransferred",
      "type": "event"
    },
    {
      "inputs": [],
      "name": "ADDRESSES_PROVIDER",
      "outputs": [
        {
          "internalType": "contract IPoolAddressesProvider",
          "name": "",
          "type": "address"
        }
      ],
      "stateMutability": "view",
      "type": "function"
    },
    {
      "inputs": [],
      "name": "POOL",
      "outputs": [
        {
          "internalType": "contract IPool",
          "name": "",
          "type": "address"
        }
      ],
      "stateMutability": "view",
      "type": "function"
    },
    {
      "inputs": [
        {
          "internalType": "address",
          "name": "token",
          "type": "address"
        }
      ],
      "name": "emergencyWithdraw",
      "outputs": [],
      "stateMutability": "nonpayable",
      "type": "function"
    },
    {
      "inputs": [
        {
          "internalType": "address",
          "name": "asset",
          "type": "address"
        },
        {
          "internalType": "uint256",
          "name": "amount",
          "type": "uint256"
        },
        {
          "internalType": "uint256",
          "name": "premium",
          "type": "uint256"
        },
        {
          "internalType": "address",
          "name": "initiator",
          "type": "address"
        },
        {
          "internalType": "bytes",
          "name": "params",
          "type": "bytes"
        }
      ],
      "name": "executeOperation",
      "outputs": [
        {
          "internalType": "bool",
          "name": "",
          "type": "bool"
        }
      ],
      "stateMutability": "nonpayable",
      "type": "function"
    },
    {
      "inputs": [],
      "name": "owner",
      "outputs": [
        {
          "internalType": "address",
          "name": "",
          "type": "address"
        }
      ],
      "stateMutability": "view",
      "type": "function"
    },
    {
      "inputs": [],
      "name": "renounceOwnership",
      "outputs": [],
      "stateMutability": "nonpayable",
      "type": "function"
    },
    {
      "inputs": [
        {
          "internalType": "address",
          "name": "asset",
          "type": "address"
        },
        {
          "internalType": "uint256",
          "name": "amount",
          "type": "uint256"
        },
        {
          "internalType": "address",
          "name": "target",
          "type": "address"
        },
        {
          "internalType": "bytes",
          "name": "data",
          "type": "bytes"
        }
      ],
      "name": "requestFlashLoan",
      "outputs": [],
      "stateMutability": "nonpayable",
      "type": "function"
    },
    {
      "inputs": [
        {
          "internalType": "address",
          "name": "newOwner",
          "type": "address"
        }
      ],
      "name": "transferOwnership",
      "outputs": [],
      "stateMutability": "nonpayable",
      "type": "function"
    }
  ],
  "bytecode": "0x60c060405234801561001057600080fd5b5073a97684ead0e402dc232d5a977953df7ecbab3cdb60808190526040805163026b1d5f60e01b81529051829163026b1d5f9160048083019260209291908290030181865afa158015610067573d6000803e3d6000fd5b505050506040513d601f19601f8201168201806040525081019061008b91906100fd565b6001600160a01b031660a0525060016000556100a6336100ab565b61012d565b600180546001600160a01b038381166001600160a01b0319831681179093556040519116919082907f8be0079c531659141344cd1fd0a4f28419497f9722a3daafe3b4186f6b6457e090600090a35050565b60006020828403121561010f57600080fd5b81516001600160a01b038116811461012657600080fd5b9392505050565b60805160a051610a6461015f600039600081816101160152818161025801526104a10152600060920152610a646000f3fe608060405234801561001057600080fd5b50600436106100885760003560e01c80637535d2461161005b5780637535d2461461011157806378fc0ba0146101385780638da5cb5b1461014b578063f2fde38b1461015c57600080fd5b80630542975c1461008d5780631b11d0ff146100d15780636ff1c9bc146100f4578063715018a614610109575b600080fd5b6100b47f000000000000000000000000000000000000000000000000000000000000000081565b6040516001600160a01b0390911681526020015b60405180910390f35b6100e46100df3660046106ff565b61016f565b60405190151581526020016100c8565b61010761010236600461077b565b6102ea565b005b61010761043f565b6100b47f000000000000000000000000000000000000000000000000000000000000000081565b61010761014636600461079f565b610453565b6001546001600160a01b03166100b4565b61010761016a36600461077b565b610523565b6000808061017f84860186610828565b915091506000826001600160a01b03168260405161019d9190610910565b6000604051808303816000865af19150503d80600081146101da576040519150601f19603f3d011682016040523d82523d6000602084013e6101df565b606091505b50509050806102355760405162461bcd60e51b815260206004820152601960248201527f53616e647769636820657865637574696f6e206661696c65640000000000000060448201526064015b60405180910390fd5b6000610241898b61092c565b60405163095ea7b360e01b81526001600160a01b037f00000000000000000000000000000000000000000000000000000000000000008116600483015260248201839052919250908c169063095ea7b3906044016020604051808303816000875af11580156102b4573d6000803e3d6000fd5b505050506040513d601f19601f820116820180604052508101906102d89190610953565b5060019b9a5050505050505050505050565b6102f261059c565b6040516370a0823160e01b81523060048201526000906001600160a01b038316906370a0823190602401602060405180830381865afa158015610339573d6000803e3d6000fd5b505050506040513d601f19601f8201168201806040525081019061035d9190610975565b9050600081116103a85760405162461bcd60e51b81526020600482015260166024820152754e6f2062616c616e636520746f20776974686472617760501b604482015260640161022c565b816001600160a01b031663a9059cbb6103c96001546001600160a01b031690565b6040516001600160e01b031960e084901b1681526001600160a01b039091166004820152602481018490526044016020604051808303816000875af1158015610416573d6000803e3d6000fd5b505050506040513d601f19601f8201168201806040525081019061043a9190610953565b505050565b61044761059c565b61045160006105f6565b565b61045b61059c565b610463610648565b600083838360405160200161047a9392919061098e565b60408051601f19818403018152908290526310ac2ddf60e21b825291506001600160a01b037f000000000000000000000000000000000000000000000000000000000000000016906342b0b77c906104df9030908a908a9087906000906004016109ce565b600060405180830381600087803b1580156104f957600080fd5b505af115801561050d573d6000803e3d6000fd5b505050505061051c6001600055565b5050505050565b61052b61059c565b6001600160a01b0381166105905760405162461bcd60e51b815260206004820152602660248201527f4f776e61626c653a206e6577206f776e657220697320746865207a65726f206160448201526564647265737360d01b606482015260840161022c565b610599816105f6565b50565b6001546001600160a01b031633146104515760405162461bcd60e51b815260206004820181905260248201527f4f776e61626c653a2063616c6c6572206973206e6f7420746865206f776e6572604482015260640161022c565b600180546001600160a01b038381166001600160a01b0319831681179093556040519116919082907f8be0079c531659141344cd1fd0a4f28419497f9722a3daafe3b4186f6b6457e090600090a35050565b60026000540361069a5760405162461bcd60e51b815260206004820152601f60248201527f5265656e7472616e637947756172643a207265656e7472616e742063616c6c00604482015260640161022c565b6002600055565b6001600160a01b038116811461059957600080fd5b60008083601f8401126106c857600080fd5b50813567ffffffffffffffff8111156106e057600080fd5b6020830191508360208285010111156106f857600080fd5b9250929050565b60008060008060008060a0878903121561071857600080fd5b8635610723816106a1565b955060208701359450604087013593506060870135610741816106a1565b9250608087013567ffffffffffffffff81111561075d57600080fd5b61076989828a016106b6565b979a9699509497509295939492505050565b60006020828403121561078d57600080fd5b8135610798816106a1565b9392505050565b6000806000806000608086880312156107b757600080fd5b85356107c2816106a1565b94506020860135935060408601356107d9816106a1565b9250606086013567ffffffffffffffff8111156107f557600080fd5b610801888289016106b6565b969995985093965092949392505050565b634e487b7160e01b600052604160045260246000fd5b6000806040838503121561083b57600080fd5b8235610846816106a1565b9150602083013567ffffffffffffffff8082111561086357600080fd5b818501915085601f83011261087757600080fd5b81358181111561088957610889610812565b604051601f8201601f19908116603f011681019083821181831017156108b1576108b1610812565b816040528281528860208487010111156108ca57600080fd5b8260208601602083013760006020848301015280955050505050509250929050565b60005b838110156109075781810151838201526020016108ef565b50506000910152565b600082516109228184602087016108ec565b9190910192915050565b8082018082111561094d57634e487b7160e01b600052601160045260246000fd5b92915050565b60006020828403121561096557600080fd5b8151801515811461079857600080fd5b60006020828403121561098757600080fd5b5051919050565b6001600160a01b03841681526040602082018190528101829052818360608301376000818301606090810191909152601f909201601f1916010192915050565b600060018060a01b03808816835280871660208401525084604083015260a0606083015283518060a0840152610a0b8160c08501602088016108ec565b61ffff93909316608083015250601f91909101601f19160160c00194935050505056fea264697066735822122067ff253c3bb70e1bb2bb763af589e0e349606ab6f7681601b5acfe862761a04164736f6c63430008130033",
  "linkReferences": {},
  "deployedLinkReferences": {}
}