{
  "_format": "hh-sol-artifact-1",
  "contractName": "SandwichExecutor",
  "sourceName": "contracts/strategies/SandwichExecutor.sol",
  "abi": [
    {
      "inputs": [
        {
          "internalType": "address",
          "name": "_flashLoanHandler",
          "type": "address"
        },
        {
          "internalType": "address",
          "name": "_priceOracle",
          "type": "address"
        }
      ],
      "stateMutability": "nonpayable",
      "type": "constructor"
    },
    {
      "anonymous": false,
      "inputs": [
        {
          "indexed": true,
          "internalType": "address",
          "name": "previousOwner",
          "type": "address"
        },
        {
          "indexed": true,
          "internalType": "address",
          "name": "newOwner",
          "type": "address"
        }
      ],
      "name": "OwnershipTransferred",
      "type": "event"
    },
    {
      "anonymous": false,
      "inputs": [
        {
          "indexed": true,
          "internalType": "address",
          "name": "token0",
          "type": "address"
        },
        {
          "indexed": true,
          "internalType": "address",
          "name": "token1",
          "type": "address"
        },
        {
          "indexed": false,
          "internalType": "uint256",
          "name": "profit",
          "type": "uint256"
        },
        {
          "indexed": false,
          "internalType": "uint256",
          "name": "timestamp",
          "type": "uint256"
        }
      ],
      "name": "SandwichExecuted",
      "type": "event"
    },
    {
      "inputs": [],
      "name": "MAX_SLIPPAGE",
      "outputs": [
        {
          "internalType": "uint256",
          "name": "",
          "type": "uint256"
        }
      ],
      "stateMutability": "view",
      "type": "function"
    },
    {
      "inputs": [],
      "name": "MIN_PROFIT_THRESHOLD",
      "outputs": [
        {
          "internalType": "uint256",
          "name": "",
          "type": "uint256"
        }
      ],
      "stateMutability": "view",
      "type": "function"
    },
    {
      "inputs": [
        {
          "internalType": "address",
          "name": "token",
          "type": "address"
        }
      ],
      "name": "emergencyWithdraw",
      "outputs": [],
      "stateMutability": "nonpayable",
      "type": "function"
    },
    {
      "inputs": [
        {
          "internalType": "address",
          "name": "targetDEX",
          "type": "address"
        },
        {
          "internalType": "address",
          "name": "token0",
          "type": "address"
        },
        {
          "internalType": "address",
          "name": "token1",
          "type": "address"
        },
        {
          "internalType": "uint256",
          "name": "amount0",
          "type": "uint256"
        },
        {
          "internalType": "uint256",
          "name": "amount1",
          "type": "uint256"
        },
        {
          "internalType": "bytes",
          "name": "frontrunData",
          "type": "bytes"
        },
        {
          "internalType": "bytes",
          "name": "victimData",
          "type": "bytes"
        },
        {
          "internalType": "bytes",
          "name": "backrunData",
          "type": "bytes"
        }
      ],
      "name": "executeSandwich",
      "outputs": [],
      "stateMutability": "nonpayable",
      "type": "function"
    },
    {
      "inputs": [],
      "name": "flashLoanHandler",
      "outputs": [
        {
          "internalType": "contract FlashLoanHandler",
          "name": "",
          "type": "address"
        }
      ],
      "stateMutability": "view",
      "type": "function"
    },
    {
      "inputs": [],
      "name": "owner",
      "outputs": [
        {
          "internalType": "address",
          "name": "",
          "type": "address"
        }
      ],
      "stateMutability": "view",
      "type": "function"
    },
    {
      "inputs": [],
      "name": "priceOracle",
      "outputs": [
        {
          "internalType": "contract PriceOracle",
          "name": "",
          "type": "address"
        }
      ],
      "stateMutability": "view",
      "type": "function"
    },
    {
      "inputs": [],
      "name": "renounceOwnership",
      "outputs": [],
      "stateMutability": "nonpayable",
      "type": "function"
    },
    {
      "inputs": [
        {
          "internalType": "address",
          "name": "newOwner",
          "type": "address"
        }
      ],
      "name": "transferOwnership",
      "outputs": [],
      "stateMutability": "nonpayable",
      "type": "function"
    }
  ],
  "bytecode": "0x60c060405234801561001057600080fd5b50604051610c9c380380610c9c83398101604081905261002f916100c2565b600160005561003d33610054565b6001600160a01b039182166080521660a0526100f5565b600180546001600160a01b038381166001600160a01b0319831681179093556040519116919082907f8be0079c531659141344cd1fd0a4f28419497f9722a3daafe3b4186f6b6457e090600090a35050565b80516001600160a01b03811681146100bd57600080fd5b919050565b600080604083850312156100d557600080fd5b6100de836100a6565b91506100ec602084016100a6565b90509250929050565b60805160a051610b6f61012d60003960008181609d01528181610627015261073e01526000818160e1015261028a0152610b6f6000f3fe608060405234801561001057600080fd5b50600436106100935760003560e01c8063715018a611610066578063715018a61461012b5780638da5cb5b14610133578063e73d668f14610144578063f2fde38b14610161578063f97595181461017457600080fd5b80632630c12f1461009857806328be55e0146100dc57806355168307146101035780636ff1c9bc14610118575b600080fd5b6100bf7f000000000000000000000000000000000000000000000000000000000000000081565b6040516001600160a01b0390911681526020015b60405180910390f35b6100bf7f000000000000000000000000000000000000000000000000000000000000000081565b610116610111366004610856565b61017c565b005b61011661012636600461093c565b610366565b6101166104bb565b6001546001600160a01b03166100bf565b61015367016345785d8a000081565b6040519081526020016100d3565b61011661016f36600461093c565b6104cf565b61015360c881565b610184610548565b61018c6105a2565b600088118061019b5750600087115b6101de5760405162461bcd60e51b815260206004820152600f60248201526e496e76616c696420616d6f756e747360881b60448201526064015b60405180910390fd5b60006101f08b8b8b8b8b8b89896105fb565b905067016345785d8a00008110156102405760405162461bcd60e51b8152602060048201526013602482015272125b9cdd59999a58da595b9d081c1c9bd99a5d606a1b60448201526064016101d5565b60008c8c8c8a8a8a8a8a8a60405160200161026399989796959493929190610987565b60408051601f19818403018152908290526303c7e05d60e51b825291506001600160a01b037f000000000000000000000000000000000000000000000000000000000000000016906378fc0ba0906102c5908f908e90309087906004016109e4565b600060405180830381600087803b1580156102df57600080fd5b505af11580156102f3573d6000803e3d6000fd5b505050508a6001600160a01b03168c6001600160a01b03167f1212edbaa22b2c18214868d55c1ddc2907e5f9678e0bf97878c2f912f3bdf3228442604051610345929190918252602082015260400190565b60405180910390a350506103596001600055565b5050505050505050505050565b61036e610548565b6040516370a0823160e01b81523060048201526000906001600160a01b038316906370a0823190602401602060405180830381865afa1580156103b5573d6000803e3d6000fd5b505050506040513d601f19601f820116820180604052508101906103d99190610a57565b9050600081116104245760405162461bcd60e51b81526020600482015260166024820152754e6f2062616c616e636520746f20776974686472617760501b60448201526064016101d5565b816001600160a01b031663a9059cbb6104456001546001600160a01b031690565b6040516001600160e01b031960e084901b1681526001600160a01b039091166004820152602481018490526044016020604051808303816000875af1158015610492573d6000803e3d6000fd5b505050506040513d601f19601f820116820180604052508101906104b69190610a70565b505050565b6104c3610548565b6104cd60006106d2565b565b6104d7610548565b6001600160a01b03811661053c5760405162461bcd60e51b815260206004820152602660248201527f4f776e61626c653a206e6577206f776e657220697320746865207a65726f206160448201526564647265737360d01b60648201526084016101d5565b610545816106d2565b50565b6001546001600160a01b031633146104cd5760405162461bcd60e51b815260206004820181905260248201527f4f776e61626c653a2063616c6c6572206973206e6f7420746865206f776e657260448201526064016101d5565b6002600054036105f45760405162461bcd60e51b815260206004820152601f60248201527f5265656e7472616e637947756172643a207265656e7472616e742063616c6c0060448201526064016101d5565b6002600055565b604051635620c32d60e11b81526001600160a01b038981166004830152888116602483015260009182917f0000000000000000000000000000000000000000000000000000000000000000169063ac41865a90604401602060405180830381865afa15801561066e573d6000803e3d6000fd5b505050506040513d601f19601f820116820180604052508101906106929190610a57565b905060006106a38b8b8b8a8a610724565b905060006106b48c8c8b8989610724565b90506106c28383838d6107c6565b9c9b505050505050505050505050565b600180546001600160a01b038381166001600160a01b0319831681179093556040519116919082907f8be0079c531659141344cd1fd0a4f28419497f9722a3daafe3b4186f6b6457e090600090a35050565b604051635620583360e11b81526000906001600160a01b037f0000000000000000000000000000000000000000000000000000000000000000169063ac40b0669061077b9089908990899089908990600401610a92565b602060405180830381865afa158015610798573d6000803e3d6000fd5b505050506040513d601f19601f820116820180604052508101906107bc9190610a57565b9695505050505050565b600080670de0b6b3a7640000836107dd8887610ae7565b6107e79190610b00565b6107bc9190610b17565b80356001600160a01b038116811461080857600080fd5b919050565b60008083601f84011261081f57600080fd5b50813567ffffffffffffffff81111561083757600080fd5b60208301915083602082850101111561084f57600080fd5b9250929050565b60008060008060008060008060008060006101008c8e03121561087857600080fd5b6108818c6107f1565b9a5061088f60208d016107f1565b995061089d60408d016107f1565b985060608c0135975060808c0135965067ffffffffffffffff8060a08e013511156108c757600080fd5b6108d78e60a08f01358f0161080d565b909750955060c08d01358110156108ed57600080fd5b6108fd8e60c08f01358f0161080d565b909550935060e08d013581101561091357600080fd5b506109248d60e08e01358e0161080d565b81935080925050509295989b509295989b9093969950565b60006020828403121561094e57600080fd5b610957826107f1565b9392505050565b81835281816020850137506000828201602090810191909152601f909101601f19169091010190565b6001600160a01b038a8116825289811660208301528816604082015260c0606082018190526000906109bc908301888a61095e565b82810360808401526109cf81878961095e565b905082810360a08401526106c281858761095e565b6001600160a01b038581168252602080830186905290841660408301526080606083018190528351908301819052600091825b82811015610a335785810182015185820160a001528101610a17565b5050600060a0828501015260a0601f19601f83011684010191505095945050505050565b600060208284031215610a6957600080fd5b5051919050565b600060208284031215610a8257600080fd5b8151801515811461095757600080fd5b6001600160a01b0386811682528516602082015260408101849052608060608201819052600090610ac6908301848661095e565b979650505050505050565b634e487b7160e01b600052601160045260246000fd5b81810381811115610afa57610afa610ad1565b92915050565b8082028115828204841417610afa57610afa610ad1565b600082610b3457634e487b7160e01b600052601260045260246000fd5b50049056fea26469706673582212203d66054d8c01bed952bfb160865238a53cdf81865d98b420387520d1f4041bf364736f6c63430008130033",
  "linkReferences": {},
  "deployedLinkReferences": {}
}