{
  "_format": "hh-sol-artifact-1",
  "contractName": "PriceOracle",
  "sourceName": "contracts/utils/PriceOracle.sol",
  "abi": [
    {
      "inputs": [],
      "stateMutability": "nonpayable",
      "type": "constructor"
    },
    {
      "anonymous": false,
      "inputs": [
        {
          "indexed": true,
          "internalType": "address",
          "name": "previousOwner",
          "type": "address"
        },
        {
          "indexed": true,
          "internalType": "address",
          "name": "newOwner",
          "type": "address"
        }
      ],
      "name": "OwnershipTransferred",
      "type": "event"
    },
    {
      "anonymous": false,
      "inputs": [
        {
          "indexed": false,
          "internalType": "address",
          "name": "token",
          "type": "address"
        },
        {
          "indexed": false,
          "internalType": "address",
          "name": "feed",
          "type": "address"
        }
      ],
      "name": "PriceFeedUpdated",
      "type": "event"
    },
    {
      "anonymous": false,
      "inputs": [
        {
          "indexed": false,
          "internalType": "address",
          "name": "token",
          "type": "address"
        },
        {
          "indexed": false,
          "internalType": "uint256",
          "name": "price",
          "type": "uint256"
        }
      ],
      "name": "PriceUpdated",
      "type": "event"
    },
    {
      "inputs": [],
      "name": "PRICE_FRESHNESS_THRESHOLD",
      "outputs": [
        {
          "internalType": "uint256",
          "name": "",
          "type": "uint256"
        }
      ],
      "stateMutability": "view",
      "type": "function"
    },
    {
      "inputs": [
        {
          "internalType": "address",
          "name": "token0",
          "type": "address"
        },
        {
          "internalType": "address",
          "name": "token1",
          "type": "address"
        }
      ],
      "name": "getPrice",
      "outputs": [
        {
          "internalType": "uint256",
          "name": "",
          "type": "uint256"
        }
      ],
      "stateMutability": "view",
      "type": "function"
    },
    {
      "inputs": [
        {
          "internalType": "address",
          "name": "",
          "type": "address"
        }
      ],
      "name": "lastUpdated",
      "outputs": [
        {
          "internalType": "uint256",
          "name": "",
          "type": "uint256"
        }
      ],
      "stateMutability": "view",
      "type": "function"
    },
    {
      "inputs": [],
      "name": "owner",
      "outputs": [
        {
          "internalType": "address",
          "name": "",
          "type": "address"
        }
      ],
      "stateMutability": "view",
      "type": "function"
    },
    {
      "inputs": [
        {
          "internalType": "address",
          "name": "",
          "type": "address"
        }
      ],
      "name": "priceFeeds",
      "outputs": [
        {
          "internalType": "address",
          "name": "",
          "type": "address"
        }
      ],
      "stateMutability": "view",
      "type": "function"
    },
    {
      "inputs": [],
      "name": "renounceOwnership",
      "outputs": [],
      "stateMutability": "nonpayable",
      "type": "function"
    },
    {
      "inputs": [
        {
          "internalType": "address",
          "name": "token0",
          "type": "address"
        },
        {
          "internalType": "address",
          "name": "token1",
          "type": "address"
        },
        {
          "internalType": "uint256",
          "name": "amount",
          "type": "uint256"
        },
        {
          "internalType": "bytes",
          "name": "tradeData",
          "type": "bytes"
        }
      ],
      "name": "simulateTradeImpact",
      "outputs": [
        {
          "internalType": "uint256",
          "name": "",
          "type": "uint256"
        }
      ],
      "stateMutability": "view",
      "type": "function"
    },
    {
      "inputs": [
        {
          "internalType": "address",
          "name": "newOwner",
          "type": "address"
        }
      ],
      "name": "transferOwnership",
      "outputs": [],
      "stateMutability": "nonpayable",
      "type": "function"
    },
    {
      "inputs": [
        {
          "internalType": "address",
          "name": "token",
          "type": "address"
        },
        {
          "internalType": "address",
          "name": "feed",
          "type": "address"
        }
      ],
      "name": "updatePriceFeed",
      "outputs": [],
      "stateMutability": "nonpayable",
      "type": "function"
    }
  ],
  "bytecode": "0x608060405234801561001057600080fd5b5061001a336100c2565b60016020527faa9ac64a2ab189f85dbd1eed46ae374d052fd5c4fa2377e9f95b8ab169add04780546001600160a01b031990811673ab594600376ec9fd91f8e885dadf0ce036862de017909155737ceb23fd6bc0add59e62ac25578270cff1b9f6196000527f65b62dd1a7c09d4b070262dcb997d4cb1495cbd20b136309d9f06c771f83650f805490911673f9680d99d6c9589e2a93a78a04a279e509205945179055610112565b600080546001600160a01b038381166001600160a01b0319831681178455604051919092169283917f8be0079c531659141344cd1fd0a4f28419497f9722a3daafe3b4186f6b6457e09190a35050565b6108fc806101216000396000f3fe608060405234801561001057600080fd5b50600436106100935760003560e01c8063ac40b06611610066578063ac40b06614610123578063ac41865a14610136578063b7997da114610149578063e9bc18011461015c578063f2fde38b1461016557600080fd5b80630a6f93e614610098578063715018a6146100cb5780638da5cb5b146100d55780639dcb511a146100fa575b600080fd5b6100b86100a63660046106f1565b60026020526000908152604090205481565b6040519081526020015b60405180910390f35b6100d3610178565b005b6000546001600160a01b03165b6040516001600160a01b0390911681526020016100c2565b6100e26101083660046106f1565b6001602052600090815260409020546001600160a01b031681565b6100b8610131366004610713565b61018c565b6100b86101443660046107ae565b610252565b6100d36101573660046107ae565b61039f565b6100b8610e1081565b6100d36101733660046106f1565b61045f565b6101806104d8565b61018a6000610532565b565b604051635620c32d60e11b81526001600160a01b038087166004830152851660248201526000908190309063ac41865a90604401602060405180830381865afa1580156101dd573d6000803e3d6000fd5b505050506040513d601f19601f8201168201806040525081019061020191906107e1565b90506000670de0b6b3a7640000610219876064610810565b6102239190610827565b90506127106102328282610849565b61023c9084610810565b6102469190610827565b98975050505050505050565b6001600160a01b038281166000908152600160205260408120549091166102c05760405162461bcd60e51b815260206004820152601f60248201527f50726963652066656564206e6f7420666f756e6420666f7220746f6b656e300060448201526064015b60405180910390fd5b6001600160a01b03828116600090815260016020526040902054166103275760405162461bcd60e51b815260206004820152601f60248201527f50726963652066656564206e6f7420666f756e6420666f7220746f6b656e310060448201526064016102b7565b6001600160a01b03808416600090815260016020526040812054909161034d9116610582565b6001600160a01b03808516600090815260016020526040812054929350916103759116610582565b90508061038a83670de0b6b3a7640000610810565b6103949190610827565b925050505b92915050565b6103a76104d8565b6001600160a01b0381166103f45760405162461bcd60e51b8152602060048201526014602482015273496e76616c69642066656564206164647265737360601b60448201526064016102b7565b6001600160a01b0382811660008181526001602090815260409182902080546001600160a01b031916948616948517905581519283528201929092527fa8abe0398416476db5b05737cd4da3b3cbde5012d978a6a6c3fd49d321753536910160405180910390a15050565b6104676104d8565b6001600160a01b0381166104cc5760405162461bcd60e51b815260206004820152602660248201527f4f776e61626c653a206e6577206f776e657220697320746865207a65726f206160448201526564647265737360d01b60648201526084016102b7565b6104d581610532565b50565b6000546001600160a01b0316331461018a5760405162461bcd60e51b815260206004820181905260248201527f4f776e61626c653a2063616c6c6572206973206e6f7420746865206f776e657260448201526064016102b7565b600080546001600160a01b038381166001600160a01b0319831681178455604051919092169283917f8be0079c531659141344cd1fd0a4f28419497f9722a3daafe3b4186f6b6457e09190a35050565b6000808290506000806000806000856001600160a01b031663feaf968c6040518163ffffffff1660e01b815260040160a060405180830381865afa1580156105ce573d6000803e3d6000fd5b505050506040513d601f19601f820116820180604052508101906105f29190610876565b94509450945094509450816000036106415760405162461bcd60e51b8152602060048201526012602482015271526f756e64206e6f7420636f6d706c65746560701b60448201526064016102b7565b600084136106815760405162461bcd60e51b815260206004820152600d60248201526c496e76616c696420707269636560981b60448201526064016102b7565b610e1061068e8342610849565b106106c95760405162461bcd60e51b815260206004820152600b60248201526a5374616c6520707269636560a81b60448201526064016102b7565b50919695505050505050565b80356001600160a01b03811681146106ec57600080fd5b919050565b60006020828403121561070357600080fd5b61070c826106d5565b9392505050565b60008060008060006080868803121561072b57600080fd5b610734866106d5565b9450610742602087016106d5565b935060408601359250606086013567ffffffffffffffff8082111561076657600080fd5b818801915088601f83011261077a57600080fd5b81358181111561078957600080fd5b89602082850101111561079b57600080fd5b9699959850939650602001949392505050565b600080604083850312156107c157600080fd5b6107ca836106d5565b91506107d8602084016106d5565b90509250929050565b6000602082840312156107f357600080fd5b5051919050565b634e487b7160e01b600052601160045260246000fd5b8082028115828204841417610399576103996107fa565b60008261084457634e487b7160e01b600052601260045260246000fd5b500490565b81810381811115610399576103996107fa565b805169ffffffffffffffffffff811681146106ec57600080fd5b600080600080600060a0868803121561088e57600080fd5b6108978661085c565b94506020860151935060408601519250606086015191506108ba6080870161085c565b9050929550929590935056fea26469706673582212203aa918b12bc6588512ec582140fbd86ca4f929e4491254adbbcc9f6657c5ce6264736f6c63430008130033",
  "linkReferences": {},
  "deployedLinkReferences": {}
}